{
  "_format": "hh-sol-artifact-1",
  "contractName": "TextStore",
  "sourceName": "contracts/StoryStore.sol",
  "abi": [
    {
      "inputs": [
        {
          "internalType": "string",
          "name": "initialText",
          "type": "string"
        }
      ],
      "stateMutability": "nonpayable",
      "type": "constructor"
    },
    {
      "inputs": [
        {
          "internalType": "string",
          "name": "additionalText",
          "type": "string"
        }
      ],
      "name": "appendText",
      "outputs": [],
      "stateMutability": "nonpayable",
      "type": "function"
    },
    {
      "inputs": [],
      "name": "getStory",
      "outputs": [
        {
          "internalType": "string",
          "name": "",
          "type": "string"
        }
      ],
      "stateMutability": "view",
      "type": "function"
    },
    {
      "inputs": [],
      "name": "owner",
      "outputs": [
        {
          "internalType": "address",
          "name": "",
          "type": "address"
        }
      ],
      "stateMutability": "view",
      "type": "function"
    },
    {
      "inputs": [],
      "name": "storyId",
      "outputs": [
        {
          "internalType": "uint256",
          "name": "",
          "type": "uint256"
        }
      ],
      "stateMutability": "view",
      "type": "function"
    },
    {
      "inputs": [],
      "name": "text",
      "outputs": [
        {
          "internalType": "string",
          "name": "",
          "type": "string"
        }
      ],
      "stateMutability": "view",
      "type": "function"
    },
    {
      "inputs": [
        {
          "internalType": "address",
          "name": "newOwner",
          "type": "address"
        }
      ],
      "name": "transferOwnership",
      "outputs": [],
      "stateMutability": "nonpayable",
      "type": "function"
    },
    {
      "inputs": [],
      "name": "updateCount",
      "outputs": [
        {
          "internalType": "uint256",
          "name": "",
          "type": "uint256"
        }
      ],
      "stateMutability": "view",
      "type": "function"
    },
    {
      "inputs": [
        {
          "internalType": "string",
          "name": "newStory",
          "type": "string"
        }
      ],
      "name": "updateStory",
      "outputs": [],
      "stateMutability": "nonpayable",
      "type": "function"
    }
  ],
  "bytecode": "0x6080604052600160025560006003553480156200001b57600080fd5b50604051620012e3380380620012e383398181016040528101906200004191906200022d565b8060019081620000529190620004c9565b50336000806101000a81548173ffffffffffffffffffffffffffffffffffffffff021916908373ffffffffffffffffffffffffffffffffffffffff16021790555050620005b0565b6000604051905090565b600080fd5b600080fd5b600080fd5b600080fd5b6000601f19601f8301169050919050565b7f4e487b7100000000000000000000000000000000000000000000000000000000600052604160045260246000fd5b6200010382620000b8565b810181811067ffffffffffffffff82111715620001255762000124620000c9565b5b80604052505050565b60006200013a6200009a565b9050620001488282620000f8565b919050565b600067ffffffffffffffff8211156200016b576200016a620000c9565b5b6200017682620000b8565b9050602081019050919050565b60005b83811015620001a357808201518184015260208101905062000186565b60008484015250505050565b6000620001c6620001c0846200014d565b6200012e565b905082815260208101848484011115620001e557620001e4620000b3565b5b620001f284828562000183565b509392505050565b600082601f830112620002125762000211620000ae565b5b815162000224848260208601620001af565b91505092915050565b600060208284031215620002465762000245620000a4565b5b600082015167ffffffffffffffff811115620002675762000266620000a9565b5b6200027584828501620001fa565b91505092915050565b600081519050919050565b7f4e487b7100000000000000000000000000000000000000000000000000000000600052602260045260246000fd5b60006002820490506001821680620002d157607f821691505b602082108103620002e757620002e662000289565b5b50919050565b60008190508160005260206000209050919050565b60006020601f8301049050919050565b600082821b905092915050565b600060088302620003517fffffffffffffffffffffffffffffffffffffffffffffffffffffffffffffffff8262000312565b6200035d868362000312565b95508019841693508086168417925050509392505050565b6000819050919050565b6000819050919050565b6000620003aa620003a46200039e8462000375565b6200037f565b62000375565b9050919050565b6000819050919050565b620003c68362000389565b620003de620003d582620003b1565b8484546200031f565b825550505050565b600090565b620003f5620003e6565b62000402818484620003bb565b505050565b5b818110156200042a576200041e600082620003eb565b60018101905062000408565b5050565b601f82111562000479576200044381620002ed565b6200044e8462000302565b810160208510156200045e578190505b620004766200046d8562000302565b83018262000407565b50505b505050565b600082821c905092915050565b60006200049e600019846008026200047e565b1980831691505092915050565b6000620004b983836200048b565b9150826002028217905092915050565b620004d4826200027e565b67ffffffffffffffff811115620004f057620004ef620000c9565b5b620004fc8254620002b8565b620005098282856200042e565b600060209050601f8311600181146200054157600084156200052c578287015190505b620005388582620004ab565b865550620005a8565b601f1984166200055186620002ed565b60005b828110156200057b5784890151825560018201915060208501945060208101905062000554565b868310156200059b578489015162000597601f8916826200048b565b8355505b6001600288020188555050505b505050505050565b610d2380620005c06000396000f3fe608060405234801561001057600080fd5b50600436106100885760003560e01c8063c02b5e571161005b578063c02b5e5714610105578063e2af0b7814610121578063e9c7ccdc1461013d578063f2fde38b1461015b57610088565b80631f1bd6921461008d57806369b4ecc9146100ab57806379c3de3e146100c95780638da5cb5b146100e7575b600080fd5b610095610177565b6040516100a291906105c0565b60405180910390f35b6100b3610205565b6040516100c091906105fb565b60405180910390f35b6100d161020b565b6040516100de91906105c0565b60405180910390f35b6100ef61029d565b6040516100fc9190610657565b60405180910390f35b61011f600480360381019061011a91906107bb565b6102c1565b005b61013b600480360381019061013691906107bb565b61037c565b005b610145610459565b60405161015291906105fb565b60405180910390f35b61017560048036038101906101709190610830565b61045f565b005b600180546101849061088c565b80601f01602080910402602001604051908101604052809291908181526020018280546101b09061088c565b80156101fd5780601f106101d2576101008083540402835291602001916101fd565b820191906000526020600020905b8154815290600101906020018083116101e057829003601f168201915b505050505081565b60035481565b60606001805461021a9061088c565b80601f01602080910402602001604051908101604052809291908181526020018280546102469061088c565b80156102935780601f1061026857610100808354040283529160200191610293565b820191906000526020600020905b81548152906001019060200180831161027657829003601f168201915b5050505050905090565b60008054906101000a900473ffffffffffffffffffffffffffffffffffffffff1681565b60008054906101000a900473ffffffffffffffffffffffffffffffffffffffff1673ffffffffffffffffffffffffffffffffffffffff163373ffffffffffffffffffffffffffffffffffffffff161461034f576040517f08c379a000000000000000000000000000000000000000000000000000000000815260040161034690610909565b60405180910390fd5b806001908161035e9190610ad5565b506001600360008282546103729190610bd6565b9250508190555050565b60008054906101000a900473ffffffffffffffffffffffffffffffffffffffff1673ffffffffffffffffffffffffffffffffffffffff163373ffffffffffffffffffffffffffffffffffffffff161461040a576040517f08c379a000000000000000000000000000000000000000000000000000000000815260040161040190610909565b60405180910390fd5b60016003600082825461041d9190610bd6565b92505081905550600181604051602001610438929190610cc9565b604051602081830303815290604052600190816104559190610ad5565b5050565b60025481565b60008054906101000a900473ffffffffffffffffffffffffffffffffffffffff1673ffffffffffffffffffffffffffffffffffffffff163373ffffffffffffffffffffffffffffffffffffffff16146104ed576040517f08c379a00000000000000000000000000000000000000000000000000000000081526004016104e490610909565b60405180910390fd5b806000806101000a81548173ffffffffffffffffffffffffffffffffffffffff021916908373ffffffffffffffffffffffffffffffffffffffff16021790555050565b600081519050919050565b600082825260208201905092915050565b60005b8381101561056a57808201518184015260208101905061054f565b60008484015250505050565b6000601f19601f8301169050919050565b600061059282610530565b61059c818561053b565b93506105ac81856020860161054c565b6105b581610576565b840191505092915050565b600060208201905081810360008301526105da8184610587565b905092915050565b6000819050919050565b6105f5816105e2565b82525050565b600060208201905061061060008301846105ec565b92915050565b600073ffffffffffffffffffffffffffffffffffffffff82169050919050565b600061064182610616565b9050919050565b61065181610636565b82525050565b600060208201905061066c6000830184610648565b92915050565b6000604051905090565b600080fd5b600080fd5b600080fd5b600080fd5b7f4e487b7100000000000000000000000000000000000000000000000000000000600052604160045260246000fd5b6106c882610576565b810181811067ffffffffffffffff821117156106e7576106e6610690565b5b80604052505050565b60006106fa610672565b905061070682826106bf565b919050565b600067ffffffffffffffff82111561072657610725610690565b5b61072f82610576565b9050602081019050919050565b82818337600083830152505050565b600061075e6107598461070b565b6106f0565b90508281526020810184848401111561077a5761077961068b565b5b61078584828561073c565b509392505050565b600082601f8301126107a2576107a1610686565b5b81356107b284826020860161074b565b91505092915050565b6000602082840312156107d1576107d061067c565b5b600082013567ffffffffffffffff8111156107ef576107ee610681565b5b6107fb8482850161078d565b91505092915050565b61080d81610636565b811461081857600080fd5b50565b60008135905061082a81610804565b92915050565b6000602082840312156108465761084561067c565b5b60006108548482850161081b565b91505092915050565b7f4e487b7100000000000000000000000000000000000000000000000000000000600052602260045260246000fd5b600060028204905060018216806108a457607f821691505b6020821081036108b7576108b661085d565b5b50919050565b7f596f7520617265206e6f7420746865206f776e65720000000000000000000000600082015250565b60006108f360158361053b565b91506108fe826108bd565b602082019050919050565b60006020820190508181036000830152610922816108e6565b9050919050565b60008190508160005260206000209050919050565b60006020601f8301049050919050565b600082821b905092915050565b60006008830261098b7fffffffffffffffffffffffffffffffffffffffffffffffffffffffffffffffff8261094e565b610995868361094e565b95508019841693508086168417925050509392505050565b6000819050919050565b60006109d26109cd6109c8846105e2565b6109ad565b6105e2565b9050919050565b6000819050919050565b6109ec836109b7565b610a006109f8826109d9565b84845461095b565b825550505050565b600090565b610a15610a08565b610a208184846109e3565b505050565b5b81811015610a4457610a39600082610a0d565b600181019050610a26565b5050565b601f821115610a8957610a5a81610929565b610a638461093e565b81016020851015610a72578190505b610a86610a7e8561093e565b830182610a25565b50505b505050565b600082821c905092915050565b6000610aac60001984600802610a8e565b1980831691505092915050565b6000610ac58383610a9b565b9150826002028217905092915050565b610ade82610530565b67ffffffffffffffff811115610af757610af6610690565b5b610b01825461088c565b610b0c828285610a48565b600060209050601f831160018114610b3f5760008415610b2d578287015190505b610b378582610ab9565b865550610b9f565b601f198416610b4d86610929565b60005b82811015610b7557848901518255600182019150602085019450602081019050610b50565b86831015610b925784890151610b8e601f891682610a9b565b8355505b6001600288020188555050505b505050505050565b7f4e487b7100000000000000000000000000000000000000000000000000000000600052601160045260246000fd5b6000610be1826105e2565b9150610bec836105e2565b9250828201905080821115610c0457610c03610ba7565b5b92915050565b600081905092915050565b60008154610c228161088c565b610c2c8186610c0a565b94506001821660008114610c475760018114610c5c57610c8f565b60ff1983168652811515820286019350610c8f565b610c6585610929565b60005b83811015610c8757815481890152600182019150602081019050610c68565b838801955050505b50505092915050565b6000610ca382610530565b610cad8185610c0a565b9350610cbd81856020860161054c565b80840191505092915050565b6000610cd58285610c15565b9150610ce18284610c98565b9150819050939250505056fea2646970667358221220e73e5114c5452425f3800b644099381099565579416806ec81d51eabcbb1197864736f6c63430008110033",
  "linkReferences": {},
  "deployedLinkReferences": {}
}